:100000000C942A000C9447000C9447000C94470071
:100010000C9447000C9447000C9447000C94470044
:100020000C9447000C9447000C9447000C94350145
:100030000C9447000C9447000C9447000C94470024
:100040000C9447000C9447000C9447000C94470014
:100050000C94470011241FBECFE5D4E0DEBFCDBF16
:1000600010E0A0E6B0E0E2E9F9E002C005900D92F0
:10007000A039B107D9F720E0A0E9B0E001C01D9296
:10008000A73DB207E1F70E94AB010C94C7040C94A2
:100090000000CF93C82F8A3019F48DE00E944900E8
:1000A0005D9BFECFCCB980E090E0CF910895829522
:1000B000807F9BB398609BBB95E89A95F1F7000011
:1000C0009BB39F709BBB9BB3892B8BBB8BB3877FF1
:1000D0008BBB85E88A95F1F700000895CF93C82F70
:1000E000611104C08BB38B7F8BBB03C08BB3846067
:1000F0008BBB8C2F82958F700E9457008C2F0E9493
:100100005700CF91089561E00E946E000895CF934B
:10011000C82F8A3019F48DE00E9487008C2F0E942E
:10012000830080E090E0CF9108956130710569F01F
:1001300038F06230710579F06330710591F00895FF
:1001400060E080680E946E000895805C60E08068D6
:100150000E946E0008958C5E60E080680E946E00D0
:1001600008958C5A60E080680E946E0008958EE6C3
:1001700090E09093D4008093D3008FE295E70197AD
:10018000F1F700C0000083E00E9457008FE39FE179
:100190000197F1F700C0000083E00E94570087EC50
:1001A00090E00197F1F700C0000083E00E94570043
:1001B0008FEC97E00197F1F700C0000082E00E9409
:1001C00057008FEC97E00197F1F700C0000060E066
:1001D00088E20E946E008FEC97E00197F1F700C073
:1001E000000060E08CE00E946E008FEC97E00197C9
:1001F000F1F700C0000060E086E00E946E008FEC26
:1002000097E00197F1F700C00000089560E081E0F9
:100210000E946E0087EB9BE00197F1F700C00000A1
:10022000089580E690E09093D6008093D50083E314
:1002300089B988E18AB986E880BD8AB180688AB9BF
:10024000089580E2E0EBF0E0DF011D928A95E9F786
:1002500080E090E05F9BFECF2CB1FC01E055FF4FAA
:10026000208301962D30B1F708951F920F920FB69B
:100270000F9211242F933F934F935F936F937F932C
:100280008F939F93AF93BF93CF93DF93EF93FF939E
:100290000E942101E0EBF0E0808191818F70880F56
:1002A000282F220F220F820F9F70890F8093D0007A
:1002B000C1EDD0E02C813D8190E001969F938F931A
:1002C0008CE790E09F938F933F932F930E94B90107
:1002D0000E94060160E070E080E00E9495002A81A3
:1002E0003B818091D00090E001969F938F9381E8AD
:1002F00090E09F938F933F932F930E94B9018DB706
:100300009EB70C960FB6F8949EBF0FBE8DBFFF919F
:10031000EF91DF91CF91BF91AF919F918F917F919D
:100320006F915F914F913F912F910F900FBE0F9062
:100330001F90189598990EC0989BFECF2091D500DC
:100340003091D6004AE050E061E070E085E890E04E
:100350000E94CB0108958CEF8ABB1BBA14BA8FEFB1
:1003600085BB0E9411010E94B70078940E949A01F7
:10037000FDCFA0E0B0E0EFEBF1E00C94A004AE0103
:10038000475F5F4F6F8178858D819E810E94FF015D
:10039000E2E00C94BC04A0E0B0E0E1EDF1E00C94EC
:1003A00096045B014A017901D90113962C9121FF32
:1003B0001DC0C0E0D0E0C815D905D9F08C016C0192
:1003C000CA0CDB1CC8010C151D0571F00F5F1F4F17
:1003D000D7011896ED91FC911997B701DC018C912A
:1003E0000995892B79F305C02196E5CF80E090E04F
:1003F00001C0CE01CDB7DEB7ECE00C94B204ABE0A7
:10040000B0E0E5E0F2E00C9490046C017B018A011D
:10041000FC0117821682838181FFCCC1CE01019637
:100420003C01F6019381F70193FD859193FF819142
:100430007F01882309F4BAC1853239F493FD85918F
:1004400093FF81917F01853229F4B60190E00E94EB
:10045000F603E7CF912C212C312CFFE1F315D8F0D6
:100460008B3279F038F4803279F08332A1F4232D85
:1004700020611DC08D3261F0803369F4232D21602D
:1004800016C0832D8260382EE32DE4603E2E2AC0F4
:10049000F32DF8601DC037FC2DC020ED280F2A3049
:1004A00040F08E32B9F436FC81C1232D2064322E07
:1004B00019C036FE06C08AE0989E200D1124922EA7
:1004C00011C0EAE02E9E200D1124222EF32DF062A1
:1004D0003F2E08C08C3621F4832D8068382E02C050
:1004E000883641F4F70193FD859193FF81917F0157
:1004F0008111B3CF982F9F7D9554933028F40C5FD2
:100500001F4F9FE399830DC0833631F0833771F01D
:10051000833509F059C021C0F801808189830E5FBD
:100520001F4F88248394912C530113C02801F2E0BB
:100530004F0E511CF801A080B18036FE03C0692D1A
:1005400070E002C06FEF7FEFC5010E94EB034C012A
:100550008201F32DFF773F2E16C0280122E0420EC4
:10056000511CF801A080B18036FE03C0692D70E0F7
:1005700002C06FEF7FEFC5010E94E0034C01F32D35
:10058000F0683F2E820133FC1BC0822D90E088165C
:100590009906B0F4B60180E290E00E94F6032A9436
:1005A000F4CFF50137FC859137FE81915F01B601EB
:1005B00090E00E94F60321102A9421E0821A91080B
:1005C0008114910471F7E8C0843611F0893641F541
:1005D000F80137FE07C060817181828193810C5FD1
:1005E0001F4F08C060817181072E000C880B990B8A
:1005F0000E5F1F4FF32DFF763F2E97FF09C090959A
:100600008095709561957F4F8F4F9F4FF0683F2E7B
:100610002AE030E0A3010E943204882E861845C0EB
:10062000853731F4232D2F7EB22E2AE030E025C00D
:10063000932D997FB92E8F36C1F018F4883579F053
:10064000B5C0803719F0883721F0B0C0E92FE061DC
:10065000BE2EB4FE0DC0FB2DF460BF2E09C034FECB
:100660000AC0292F2660B22E06C028E030E005C05F
:1006700020E130E002C020E132E0F801B7FE07C01F
:1006800060817181828193810C5F1F4F06C0608100
:10069000718180E090E00E5F1F4FA3010E94320441
:1006A000882E8618FB2DFF773F2E36FE0DC0232D9A
:1006B0002E7FA22E891458F434FE0BC032FC09C0E0
:1006C000832D8E7EA82E05C0B82CA32C03C0B82C79
:1006D00001C0B92CA4FE0FC0FE01E80DF11D808100
:1006E000803321F49A2D997EA92E09C0A2FE06C05E
:1006F000B394B39404C08A2D867809F0B394A3FC14
:1007000011C0A0FE06C0B21488F4280C922C9B18CD
:100710000EC0B21460F4B60180E290E00E94F603CD
:10072000B394F7CFB21418F42B1802C0982C212CD4
:10073000A4FE10C0B60180E390E00E94F603A2FE82
:1007400017C0A1FC03C088E790E002C088E590E0F4
:10075000B6010CC08A2D867859F0A1FE02C08BE24A
:1007600001C080E2A7FC8DE2B60190E00E94F60392
:10077000891438F4B60180E390E00E94F6039A945D
:10078000F7CF8A94F301E80DF11D8081B60190E066
:100790000E94F6038110F5CF222009F442CEB60163
:1007A00080E290E00E94F6032A94F6CFF60186815B
:1007B000978102C08FEF9FEF2B96E2E10C94AC047F
:1007C000FC010590615070400110D8F7809590951C
:1007D0008E0F9F1F0895FC01615070400190011021
:1007E000D8F7809590958E0F9F1F08950F931F93B4
:1007F000CF93DF93FB01238121FD03C08FEF9FEF98
:100800002CC022FF16C046815781248135814217B2
:10081000530744F4A081B1819D012F5F3F4F318385
:1008200020838C93268137812F5F3F4F3783268328
:1008300014C08B01EC01FB010084F185E02D0995CA
:10084000892BE1F6D80116968D919C911797019608
:1008500017969C938E931697CE01DF91CF911F919F
:100860000F910895FA01AA27283051F1203181F122
:10087000E8946F936E7F6E5F7F4F8F4F9F4FAF4FA8
:10088000B1E03ED0B4E03CD0670F781F891F9A1FBB
:10089000A11D680F791F8A1F911DA11D6A0F711D6F
:1008A000811D911DA11D20D009F468943F912AE07B
:1008B000269F11243019305D3193DEF6CF01089563
:1008C000462F4770405D4193B3E00FD0C9F7F6CF94
:1008D000462F4F70405D4A3318F0495D31FD40525C
:1008E000419302D0A9F7EACFB4E0A69597958795F2
:1008F00077956795BA95C9F70097610571050895D1
:100900009B01AC010A2E069457954795379527957C
:10091000BA95C9F7620F731F841F951FA01D089514
:100920002F923F924F925F926F927F928F929F92FF
:10093000AF92BF92CF92DF92EF92FF920F931F93ED
:10094000CF93DF93CDB7DEB7CA1BDB0B0FB6F8949E
:10095000DEBF0FBECDBF09942A88398848885F84DE
:100960006E847D848C849B84AA84B984C884DF804F
:10097000EE80FD800C811B81AA81B981CE0FD11D33
:100980000FB6F894DEBF0FBECDBFED010895F89409
:02099000FFCF97
:10099200000000020000000049000000000000000A
:1009A2000002000000008700000000004125640DE5
:1009B200004125640067657420636F756E740D00D5
:00000001FF
