S00F0000636F64653132382E73726563DF
S113000045C0000060C000005EC000005CC000008D
S11300105AC0000058C0000056C0000054C0000080
S113002052C0000050C000004EC000004CC0000090
S11300304AC0000048C0000046C0000044C00000A0
S113004042C0000040C0000052C100003CC000009B
S11300503AC0000038C0000036C0000034C00000C0
S113006032C0000030C000002EC000002CC00000D0
S11300702AC0000028C00000ADC1000024C0000058
S113008022C0000020C000001EC0000011241FBEBA
S1130090CFEFD0E1DEBFCDBF11E0A0E0B1E0E2E5FB
S11300A0FBE000E00BBF02C007900D92A435B1073E
S11300B0D9F722E0A4E5B1E001C01D92A83EB20741
S11300C0E1F75ED244C59CCFCF93C82F8A3011F498
S11300D08DE0FADF5D9BFECFCCB980E090E0CF915C
S11300E00895CF93C82F8A3011F48DE0FADF809100
S11300F09B0085FFFCCFC0939C0080E090E0CF91F3
S113010008958295807FE2E6F0E090819860908384
S113011095E89A95F1F7000090819F709083908103
S1130120892B80838081877F808385E88A95F1F796
S113013000000895CF93C82F611106C0E2E6F0E0F5
S113014080818B7F808305C0E2E6F0E0808184605B
S113015080838C2F82958F70D4DF8C2FD2DFCF9148
S1130160089561E0E7CF0895CF93C82F8A3011F442
S11301708DE0FADF8C2FF5DF80E090E0CF910895D9
S11301806130710561F038F06230710569F06330F7
S1130190710579F0089560E08068CCCF0895805CA3
S11301A060E08068C7CF08958C5E60E08068C2CF4D
S11301B008958C5A60E08068BDCF08958CE191E089
S11301C09093E5028093E4028FE295E70197F1F7BB
S11301D000C0000083E095DF8FE39FE10197F1F712
S11301E000C0000083E08DDF87EC90E00197F1F719
S11301F000C0000083E085DF8FEC97E00197F1F702
S113020000C0000082E07DDF8FEC97E00197F1F7FA
S113021000C0000060E088E28DDF8FEC97E001977A
S1130220F1F700C0000060E08CE084DF8FEC97E021
S11302300197F1F700C0000060E086E07BDF8FECFF
S113024097E00197F1F700C0000008958EE091E077
S11302509093E7028093E60283E389B988E18AB93F
S113026086E0809395008AB180688AB9089580E019
S113027091E09093E3028093E20283E380939900F8
S1130280EAE9F0E088E1808386E080939D00808144
S113029080688083089580E2E2ECF2E0DF011D9241
S11302A08A95E9F780E090E05F9BFECF2CB1FC01DA
S11302B0EE53FD4F208301962D30B1F7089580E26F
S11302C0E2E8F2E0DF011D928A95E9F720E030E0F0
S11302D080919B008823E4F780919C00F901EE57FC
S11302E0FD4F80832F5F3F4F8D3091F708951F920C
S11302F00F920FB60F9211240BB60F922F933F93C8
S11303004F935F936F937F938F939F93AF93BF9319
S1130310EF93FF93C0DF69E471E082EC92E03FD198
S1130320892B41F590915501E2EEF2E0448155812B
S11303308DEC989F812D1124869586958695382F6E
S1130340330F232F220F220F230F921B1F929F93F1
S11303501F928F938AE291E09F938F935F934F93C1
S113036027D18DB79EB708960FB6F8949EBF0FBEDF
S11303708DBF1DC080915501E82FF0E0A2ECB2E0E2
S11303809C919F01220F331FE20FF31FEA5AFE4F85
S1130390908311969C911197918312969C919283CC
S11303A08F5F80935501833611F410925501FF91AC
S11303B0EF91BF91AF919F918F917F916F915F91D9
S11303C04F913F912F910F900BBE0F900FBE0F9046
S11303D01F9018951F920F920FB60F9211240BB60F
S11303E00F922F933F934F935F936F937F938F93CA
S11303F09F93AF93BF93EF93FF9361DF69E471E041
S113040082E892E0CCD0892B41F590915501E2EE3F
S1130410F2E0408151818DEC989F812D11248695C5
S113042086958695382F330F232F220F220F230F03
S1130430921B1F929F931F928F938AE291E09F9346
S11304408F935F934F93B4D08DB79EB708960FB632
S1130450F8949EBF0FBE8DBF1DC080915501E82F3B
S1130460F0E0A2E8B2E09C919F01220F331FE20F5B
S1130470F31FEA5AFE4F908311969C911197918332
S113048012969C9192838F5F80935501833611F469
S113049010925501FF91EF91BF91AF919F918F9170
S11304A07F916F915F914F913F912F910F900BBE70
S11304B00F900FBE0F901F901895CF93DF9360E0BD
S11304C070E080E05DDEE0915401F0E0CF01880F40
S11304D0991FE80FF91FEA5AFE4F2281918180810A
S11304E01F922F931F929F931F928F9380E391E00B
S11304F09F938F936CD08DB79EB708960FB6F894E0
S11305009EBF0FBE8DBFC1E0D0E026C0BE0180E01B
S113051037DE80915401FE01E80FF11DCF01880FF1
S1130520991FE80FF91FEA5AFE4F228191818081B9
S11305301F922F931F929F931F928F9380E491E0B9
S11305409F938F9344D021968DB79EB708960FB68C
S1130550F8949EBF0FBE8DBFC430D105BCF2DF91AD
S1130560CF91089598990BC0989BFECF8091540128
S11305708F5F80935401833611F4109254010895CF
S113058065DE75DE8CEF809361001092620016DEEA
S113059014BA8FEF85BB7894E5DF8FDFFDCFFB01C5
S11305A0DC018D91019080190110D9F3990B089504
S11305B0CF93DF93CDB7DEB7AE01475F5F4F6F8157
S11305C078858D819E8116D0DF91CF910895CF9348
S11305D0DF93CDB7DEB7AE014B5F5F4FFA01619198
S11305E07191AF018091E4029091E50203D0DF9113
S11305F0CF9108952F923F924F925F926F927F9284
S11306008F929F92AF92BF92CF92DF92EF92FF921E
S11306100F931F93CF93DF93CDB7DEB72B970FB60E
S1130620F894DEBF0FBECDBF6C017B018A01FC01D3
S113063017821682838181FFBFC1CE0101963C01DE
S1130640F6019381F70193FD859193FF81917F01D9
S1130650882309F4ADC1853239F493FD859193FF64
S113066081917F01853221F4B60190E0D6D1E8CFA3
S1130670912C212C312CFFE1F315D8F08B3279F039
S113068038F4803279F08332A1F4232D20611DC027
S11306908D3261F0803369F4232D216016C0832DDF
S11306A08260382EE32DE4603E2E2AC0F32DF860DC
S11306B01DC037FC2DC020ED280F2A3040F08E32AB
S11306C0B9F436FC75C1232D2064322E19C036FED0
S11306D006C08AE0989E200D1124922E11C0EAE0F3
S11306E02E9E200D1124222EF32DF0623F2E08C0E1
S11306F08C3621F4832D8068382E02C0883641F46C
S1130700F70193FD859193FF81917F018111B3CF0F
S1130710982F9F7D9554933028F40C5F1F4F9FE3CF
S113072099830DC0833631F0833771F0833509F036
S113073055C020C0F801808189830E5F1F4F882433
S11307408394912C530112C02801F2E04F0E511CE6
S1130750F801A080B18036FE03C0692D70E002C0AC
S11307606FEF7FEFC5014ED14C018201F32DFF776E
S11307703F2E15C0280122E0420E511CF801A08032
S1130780B18036FE03C0692D70E002C06FEF7FEFC9
S1130790C5012DD14C01F32DF0683F2E820133FCAD
S11307A019C0822D90E088169906A0F4B60180E263
S11307B090E033D12A94F5CFF50137FC859137FECB
S11307C081915F01B60190E028D121102A9421E0A3
S11307D0821A91088114910479F7E1C0843611F0EA
S11307E0893639F5F80137FE07C06081718182814D
S11307F093810C5F1F4F08C060817181072E000C2C
S1130800880B990B0E5F1F4FF32DFF763F2E97FF3A
S113081009C090958095709561957F4F8F4F9F4F3C
S1130820F0683F2E2AE030E0A30133D1882E8618E9
S113083044C0853731F4232D2F7EB22E2AE030E0D8
S113084025C0932D997FB92E8F36C1F018F48835C1
S113085079F0AEC0803719F0883721F0A9C0E92FAC
S1130860E061BE2EB4FE0DC0FB2DF460BF2E09C0A6
S113087034FE0AC0292F2660B22E06C028E030E0DC
S113088005C020E130E002C020E132E0F801B7FE0B
S113089007C060817181828193810C5F1F4F06C004
S11308A06081718180E090E00E5F1F4FA301F1D061
S11308B0882E8618FB2DFF773F2E36FE0DC0232D84
S11308C02E7FA22E891458F434FE0BC032FC09C0CA
S11308D0832D8E7EA82E05C0B82CA32C03C0B82C63
S11308E001C0B92CA4FE0FC0FE01E80DF11D8081EA
S11308F0803321F49A2D997EA92E09C0A2FE06C048
S1130900B394B39404C08A2D867809F0B394A3FCFD
S113091010C0A0FE06C0B21480F4280C922C9B18C0
S11309200DC0B21458F4B60180E290E076D0B394CE
S1130930F8CFB21418F42B1802C0982C212CA4FE62
S11309400FC0B60180E390E068D0A2FE16C0A1FCFF
S113095003C088E790E002C088E590E0B6010CC0CF
S11309608A2D867851F0A1FE02C08BE201C080E29C
S1130970A7FC8DE2B60190E050D0891430F4B601A2
S113098080E390E04AD09A94F8CF8A94F301E80D7A
S1130990F11D8081B60190E040D08110F6CF222075
S11309A009F44ECEB60180E290E037D02A94F7CF16
S11309B0F6018681978102C08FEF9FEF2B960FB6C9
S11309C0F894DEBF0FBECDBFDF91CF911F910F9181
S11309D0FF90EF90DF90CF90BF90AF909F908F905B
S11309E07F906F905F904F903F902F900895FC01FF
S11309F00590615070400110D8F7809590958E0F46
S1130A009F1F0895FC016150704001900110D8F7B8
S1130A10809590958E0F9F1F08950F931F93CF93EA
S1130A20DF93FB01238121FD03C08FEF9FEF2CC0D7
S1130A3022FF16C04681578124813581421753070E
S1130A4044F4A081B1819D012F5F3F4F3183208306
S1130A508C93268137812F5F3F4F3783268314C0C1
S1130A608B01EC01FB010084F185E02D0995892BB4
S1130A70E1F6D80116968D919C91179701961796D9
S1130A809C938E931697CE01DF91CF911F910F9176
S1130A900895FA01AA27283051F1203181F1E89410
S1130AA06F936E7F6E5F7F4F8F4F9F4FAF4FB1E05D
S1130AB03ED0B4E03CD0670F781F891F9A1FA11D58
S1130AC0680F791F8A1F911DA11D6A0F711D811D59
S1130AD0911DA11D20D009F468943F912AE0269F1E
S1130AE011243019305D3193DEF6CF010895462F7D
S1130AF04770405D4193B3E00FD0C9F7F6CF462F5E
S1130B004F70405D4A3318F0495D31FD40524193C6
S1130B1002D0A9F7EACFB4E0A69597958795779583
S1130B206795BA95C9F700976105710508959B010A
S1130B30AC010A2E06945795479537952795BA9593
S1130B40C9F7620F731F841F951FA01D0895F894A1
S1050B50FFCFD1
S1130B52000000020000000071000000000000001C
S1130B620002000000006400000000000000000217
S1130B7200000000B40000000000256425640D009C
S1130B8243757272656E743A20256325632563008A
S1130B9225313063256325630067657420636F75AF
S1070BA26E740D005C
S9030000FC
